{
  "_format": "hh-sol-artifact-1",
  "contractName": "SquirrelyMonzNFT",
  "sourceName": "contracts/SquirrelyMonzNFT.sol",
  "abi": [
    {
      "inputs": [],
      "stateMutability": "nonpayable",
      "type": "constructor"
    },
    {
      "anonymous": false,
      "inputs": [
        {
          "indexed": true,
          "internalType": "address",
          "name": "owner",
          "type": "address"
        },
        {
          "indexed": true,
          "internalType": "address",
          "name": "approved",
          "type": "address"
        },
        {
          "indexed": true,
          "internalType": "uint256",
          "name": "tokenId",
          "type": "uint256"
        }
      ],
      "name": "Approval",
      "type": "event"
    },
    {
      "anonymous": false,
      "inputs": [
        {
          "indexed": true,
          "internalType": "address",
          "name": "owner",
          "type": "address"
        },
        {
          "indexed": true,
          "internalType": "address",
          "name": "operator",
          "type": "address"
        },
        {
          "indexed": false,
          "internalType": "bool",
          "name": "approved",
          "type": "bool"
        }
      ],
      "name": "ApprovalForAll",
      "type": "event"
    },
    {
      "anonymous": false,
      "inputs": [
        {
          "indexed": true,
          "internalType": "address",
          "name": "previousOwner",
          "type": "address"
        },
        {
          "indexed": true,
          "internalType": "address",
          "name": "newOwner",
          "type": "address"
        }
      ],
      "name": "OwnershipTransferred",
      "type": "event"
    },
    {
      "anonymous": false,
      "inputs": [
        {
          "indexed": true,
          "internalType": "address",
          "name": "from",
          "type": "address"
        },
        {
          "indexed": true,
          "internalType": "address",
          "name": "to",
          "type": "address"
        },
        {
          "indexed": true,
          "internalType": "uint256",
          "name": "tokenId",
          "type": "uint256"
        }
      ],
      "name": "Transfer",
      "type": "event"
    },
    {
      "inputs": [],
      "name": "COLLECTION_SIZE",
      "outputs": [
        {
          "internalType": "uint256",
          "name": "",
          "type": "uint256"
        }
      ],
      "stateMutability": "view",
      "type": "function"
    },
    {
      "inputs": [],
      "name": "FIRSTXFREE",
      "outputs": [
        {
          "internalType": "uint256",
          "name": "",
          "type": "uint256"
        }
      ],
      "stateMutability": "view",
      "type": "function"
    },
    {
      "inputs": [],
      "name": "MINT_PRICE",
      "outputs": [
        {
          "internalType": "uint256",
          "name": "",
          "type": "uint256"
        }
      ],
      "stateMutability": "view",
      "type": "function"
    },
    {
      "inputs": [],
      "name": "TOKENS_PER_PERSON_PUB_LIMIT",
      "outputs": [
        {
          "internalType": "uint256",
          "name": "",
          "type": "uint256"
        }
      ],
      "stateMutability": "view",
      "type": "function"
    },
    {
      "inputs": [],
      "name": "TOKENS_PER_TRAN_LIMIT",
      "outputs": [
        {
          "internalType": "uint256",
          "name": "",
          "type": "uint256"
        }
      ],
      "stateMutability": "view",
      "type": "function"
    },
    {
      "inputs": [
        {
          "internalType": "address",
          "name": "to",
          "type": "address"
        },
        {
          "internalType": "uint256",
          "name": "count",
          "type": "uint256"
        }
      ],
      "name": "airdrop",
      "outputs": [],
      "stateMutability": "nonpayable",
      "type": "function"
    },
    {
      "inputs": [
        {
          "internalType": "address",
          "name": "to",
          "type": "address"
        },
        {
          "internalType": "uint256",
          "name": "tokenId",
          "type": "uint256"
        }
      ],
      "name": "approve",
      "outputs": [],
      "stateMutability": "nonpayable",
      "type": "function"
    },
    {
      "inputs": [
        {
          "internalType": "address",
          "name": "owner",
          "type": "address"
        }
      ],
      "name": "balanceOf",
      "outputs": [
        {
          "internalType": "uint256",
          "name": "",
          "type": "uint256"
        }
      ],
      "stateMutability": "view",
      "type": "function"
    },
    {
      "inputs": [
        {
          "internalType": "uint256",
          "name": "count",
          "type": "uint256"
        }
      ],
      "name": "calcTotal",
      "outputs": [
        {
          "internalType": "uint256",
          "name": "",
          "type": "uint256"
        }
      ],
      "stateMutability": "view",
      "type": "function"
    },
    {
      "inputs": [
        {
          "internalType": "uint256",
          "name": "tokenId",
          "type": "uint256"
        }
      ],
      "name": "getApproved",
      "outputs": [
        {
          "internalType": "address",
          "name": "",
          "type": "address"
        }
      ],
      "stateMutability": "view",
      "type": "function"
    },
    {
      "inputs": [
        {
          "internalType": "address",
          "name": "owner",
          "type": "address"
        },
        {
          "internalType": "address",
          "name": "operator",
          "type": "address"
        }
      ],
      "name": "isApprovedForAll",
      "outputs": [
        {
          "internalType": "bool",
          "name": "",
          "type": "bool"
        }
      ],
      "stateMutability": "view",
      "type": "function"
    },
    {
      "inputs": [
        {
          "internalType": "uint256",
          "name": "count",
          "type": "uint256"
        }
      ],
      "name": "mint",
      "outputs": [],
      "stateMutability": "payable",
      "type": "function"
    },
    {
      "inputs": [],
      "name": "name",
      "outputs": [
        {
          "internalType": "string",
          "name": "",
          "type": "string"
        }
      ],
      "stateMutability": "view",
      "type": "function"
    },
    {
      "inputs": [],
      "name": "owner",
      "outputs": [
        {
          "internalType": "address",
          "name": "",
          "type": "address"
        }
      ],
      "stateMutability": "view",
      "type": "function"
    },
    {
      "inputs": [
        {
          "internalType": "uint256",
          "name": "tokenId",
          "type": "uint256"
        }
      ],
      "name": "ownerOf",
      "outputs": [
        {
          "internalType": "address",
          "name": "",
          "type": "address"
        }
      ],
      "stateMutability": "view",
      "type": "function"
    },
    {
      "inputs": [],
      "name": "preRevealURL",
      "outputs": [
        {
          "internalType": "string",
          "name": "",
          "type": "string"
        }
      ],
      "stateMutability": "view",
      "type": "function"
    },
    {
      "inputs": [],
      "name": "renounceOwnership",
      "outputs": [],
      "stateMutability": "nonpayable",
      "type": "function"
    },
    {
      "inputs": [
        {
          "internalType": "string",
          "name": "url",
          "type": "string"
        }
      ],
      "name": "reveal",
      "outputs": [],
      "stateMutability": "nonpayable",
      "type": "function"
    },
    {
      "inputs": [
        {
          "internalType": "address",
          "name": "from",
          "type": "address"
        },
        {
          "internalType": "address",
          "name": "to",
          "type": "address"
        },
        {
          "internalType": "uint256",
          "name": "tokenId",
          "type": "uint256"
        }
      ],
      "name": "safeTransferFrom",
      "outputs": [],
      "stateMutability": "nonpayable",
      "type": "function"
    },
    {
      "inputs": [
        {
          "internalType": "address",
          "name": "from",
          "type": "address"
        },
        {
          "internalType": "address",
          "name": "to",
          "type": "address"
        },
        {
          "internalType": "uint256",
          "name": "tokenId",
          "type": "uint256"
        },
        {
          "internalType": "bytes",
          "name": "data",
          "type": "bytes"
        }
      ],
      "name": "safeTransferFrom",
      "outputs": [],
      "stateMutability": "nonpayable",
      "type": "function"
    },
    {
      "inputs": [],
      "name": "saleStatus",
      "outputs": [
        {
          "internalType": "enum SquirrelyMonzNFT.SaleStatus",
          "name": "",
          "type": "uint8"
        }
      ],
      "stateMutability": "view",
      "type": "function"
    },
    {
      "inputs": [
        {
          "internalType": "address",
          "name": "operator",
          "type": "address"
        },
        {
          "internalType": "bool",
          "name": "approved",
          "type": "bool"
        }
      ],
      "name": "setApprovalForAll",
      "outputs": [],
      "stateMutability": "nonpayable",
      "type": "function"
    },
    {
      "inputs": [
        {
          "internalType": "string",
          "name": "url",
          "type": "string"
        }
      ],
      "name": "setPreRevealUrl",
      "outputs": [],
      "stateMutability": "nonpayable",
      "type": "function"
    },
    {
      "inputs": [
        {
          "internalType": "uint256",
          "name": "price",
          "type": "uint256"
        }
      ],
      "name": "setPublicMintPrice",
      "outputs": [],
      "stateMutability": "nonpayable",
      "type": "function"
    },
    {
      "inputs": [
        {
          "internalType": "enum SquirrelyMonzNFT.SaleStatus",
          "name": "status",
          "type": "uint8"
        }
      ],
      "name": "setSaleStatus",
      "outputs": [],
      "stateMutability": "nonpayable",
      "type": "function"
    },
    {
      "inputs": [
        {
          "internalType": "bytes4",
          "name": "interfaceId",
          "type": "bytes4"
        }
      ],
      "name": "supportsInterface",
      "outputs": [
        {
          "internalType": "bool",
          "name": "",
          "type": "bool"
        }
      ],
      "stateMutability": "view",
      "type": "function"
    },
    {
      "inputs": [],
      "name": "symbol",
      "outputs": [
        {
          "internalType": "string",
          "name": "",
          "type": "string"
        }
      ],
      "stateMutability": "view",
      "type": "function"
    },
    {
      "inputs": [
        {
          "internalType": "uint256",
          "name": "tokenId",
          "type": "uint256"
        }
      ],
      "name": "tokenURI",
      "outputs": [
        {
          "internalType": "string",
          "name": "",
          "type": "string"
        }
      ],
      "stateMutability": "view",
      "type": "function"
    },
    {
      "inputs": [],
      "name": "totalSupply",
      "outputs": [
        {
          "internalType": "uint256",
          "name": "",
          "type": "uint256"
        }
      ],
      "stateMutability": "view",
      "type": "function"
    },
    {
      "inputs": [
        {
          "internalType": "address",
          "name": "from",
          "type": "address"
        },
        {
          "internalType": "address",
          "name": "to",
          "type": "address"
        },
        {
          "internalType": "uint256",
          "name": "tokenId",
          "type": "uint256"
        }
      ],
      "name": "transferFrom",
      "outputs": [],
      "stateMutability": "nonpayable",
      "type": "function"
    },
    {
      "inputs": [
        {
          "internalType": "address",
          "name": "newOwner",
          "type": "address"
        }
      ],
      "name": "transferOwnership",
      "outputs": [],
      "stateMutability": "nonpayable",
      "type": "function"
    },
    {
      "inputs": [],
      "name": "withdraw",
      "outputs": [],
      "stateMutability": "nonpayable",
      "type": "function"
    }
  ],
  "bytecode": "0x608060405266038d7ea4c680006008556000600960006101000a81548160ff02191690836002811115620000385762000037620001fc565b5b02179055506040518060800160405280605081526020016200443c60509139600b9081620000679190620004a5565b503480156200007557600080fd5b506040518060400160405280601081526020017f537175697272656c794d6f6e7a382e30000000000000000000000000000000008152506040518060400160405280600381526020017f53515a00000000000000000000000000000000000000000000000000000000008152508160009081620000f39190620004a5565b508060019081620001059190620004a5565b505050620001286200011c6200012e60201b60201c565b6200013660201b60201c565b6200058c565b600033905090565b6000600660009054906101000a900473ffffffffffffffffffffffffffffffffffffffff16905081600660006101000a81548173ffffffffffffffffffffffffffffffffffffffff021916908373ffffffffffffffffffffffffffffffffffffffff1602179055508173ffffffffffffffffffffffffffffffffffffffff168173ffffffffffffffffffffffffffffffffffffffff167f8be0079c531659141344cd1fd0a4f28419497f9722a3daafe3b4186f6b6457e060405160405180910390a35050565b7f4e487b7100000000000000000000000000000000000000000000000000000000600052602160045260246000fd5b600081519050919050565b7f4e487b7100000000000000000000000000000000000000000000000000000000600052604160045260246000fd5b7f4e487b7100000000000000000000000000000000000000000000000000000000600052602260045260246000fd5b60006002820490506001821680620002ad57607f821691505b602082108103620002c357620002c262000265565b5b50919050565b60008190508160005260206000209050919050565b60006020601f8301049050919050565b600082821b905092915050565b6000600883026200032d7fffffffffffffffffffffffffffffffffffffffffffffffffffffffffffffffff82620002ee565b620003398683620002ee565b95508019841693508086168417925050509392505050565b6000819050919050565b6000819050919050565b600062000386620003806200037a8462000351565b6200035b565b62000351565b9050919050565b6000819050919050565b620003a28362000365565b620003ba620003b1826200038d565b848454620002fb565b825550505050565b600090565b620003d1620003c2565b620003de81848462000397565b505050565b5b818110156200040657620003fa600082620003c7565b600181019050620003e4565b5050565b601f82111562000455576200041f81620002c9565b6200042a84620002de565b810160208510156200043a578190505b620004526200044985620002de565b830182620003e3565b50505b505050565b600082821c905092915050565b60006200047a600019846008026200045a565b1980831691505092915050565b600062000495838362000467565b9150826002028217905092915050565b620004b0826200022b565b67ffffffffffffffff811115620004cc57620004cb62000236565b5b620004d8825462000294565b620004e58282856200040a565b600060209050601f8311600181146200051d576000841562000508578287015190505b62000514858262000487565b86555062000584565b601f1984166200052d86620002c9565b60005b82811015620005575784890151825560018201915060208501945060208101905062000530565b8683101562000577578489015162000573601f89168262000467565b8355505b6001600288020188555050505b505050505050565b613ea0806200059c6000396000f3fe6080604052600436106101e25760003560e01c8063715018a611610102578063b3f8d3cb11610095578063d8258d9511610064578063d8258d95146106bc578063e985e9c5146106e7578063f2fde38b14610724578063f9020e331461074d576101e2565b8063b3f8d3cb14610600578063b88d4fde1461062b578063c002d23d14610654578063c87b56dd1461067f576101e2565b806395d89b41116100d157806395d89b4114610553578063a0712d681461057e578063a22cb4651461059a578063af6128c2146105c3576101e2565b8063715018a6146104bd5780638ba4cc3c146104d45780638da5cb5b146104fd57806395c7077814610528576101e2565b80633661edfa1161017a5780634c261247116101495780634c261247146103f15780635d82cf6e1461041a5780636352211e1461044357806370a0823114610480576101e2565b80633661edfa1461035d5780633ccfd60b1461038857806342842e0e1461039f5780634891ad88146103c8576101e2565b8063081812fc116101b6578063081812fc146102a3578063095ea7b3146102e057806318160ddd1461030957806323b872dd14610334576101e2565b80620cbb21146101e757806301ffc9a71461021057806303a373131461024d57806306fdde0314610278575b600080fd5b3480156101f357600080fd5b5061020e60048036038101906102099190612712565b610778565b005b34801561021c57600080fd5b50610237600480360381019061023291906127b7565b610796565b60405161024491906127ff565b60405180910390f35b34801561025957600080fd5b50610262610878565b60405161026f91906128aa565b60405180910390f35b34801561028457600080fd5b5061028d610906565b60405161029a91906128aa565b60405180910390f35b3480156102af57600080fd5b506102ca60048036038101906102c59190612902565b610998565b6040516102d79190612970565b60405180910390f35b3480156102ec57600080fd5b50610307600480360381019061030291906129b7565b6109de565b005b34801561031557600080fd5b5061031e610af5565b60405161032b9190612a06565b60405180910390f35b34801561034057600080fd5b5061035b60048036038101906103569190612a21565b610b06565b005b34801561036957600080fd5b50610372610b66565b60405161037f9190612a06565b60405180910390f35b34801561039457600080fd5b5061039d610b6b565b005b3480156103ab57600080fd5b506103c660048036038101906103c19190612a21565b610c0c565b005b3480156103d457600080fd5b506103ef60048036038101906103ea9190612a99565b610c2c565b005b3480156103fd57600080fd5b5061041860048036038101906104139190612712565b610c61565b005b34801561042657600080fd5b50610441600480360381019061043c9190612902565b610c7f565b005b34801561044f57600080fd5b5061046a60048036038101906104659190612902565b610c91565b6040516104779190612970565b60405180910390f35b34801561048c57600080fd5b506104a760048036038101906104a29190612ac6565b610d17565b6040516104b49190612a06565b60405180910390f35b3480156104c957600080fd5b506104d2610dce565b005b3480156104e057600080fd5b506104fb60048036038101906104f691906129b7565b610de2565b005b34801561050957600080fd5b50610512610e51565b60405161051f9190612970565b60405180910390f35b34801561053457600080fd5b5061053d610e7b565b60405161054a9190612a06565b60405180910390f35b34801561055f57600080fd5b50610568610e80565b60405161057591906128aa565b60405180910390f35b61059860048036038101906105939190612902565b610f12565b005b3480156105a657600080fd5b506105c160048036038101906105bc9190612b1f565b611161565b005b3480156105cf57600080fd5b506105ea60048036038101906105e59190612902565b611177565b6040516105f79190612a06565b60405180910390f35b34801561060c57600080fd5b506106156112c3565b6040516106229190612a06565b60405180910390f35b34801561063757600080fd5b50610652600480360381019061064d9190612c8f565b6112c8565b005b34801561066057600080fd5b5061066961132a565b6040516106769190612a06565b60405180910390f35b34801561068b57600080fd5b506106a660048036038101906106a19190612902565b611330565b6040516106b391906128aa565b60405180910390f35b3480156106c857600080fd5b506106d1611452565b6040516106de9190612a06565b60405180910390f35b3480156106f357600080fd5b5061070e60048036038101906107099190612d12565b611458565b60405161071b91906127ff565b60405180910390f35b34801561073057600080fd5b5061074b60048036038101906107469190612ac6565b6114ec565b005b34801561075957600080fd5b5061076261156f565b60405161076f9190612dc9565b60405180910390f35b610780611582565b8181600b9182610791929190612ffb565b505050565b60007f80ac58cd000000000000000000000000000000000000000000000000000000007bffffffffffffffffffffffffffffffffffffffffffffffffffffffff1916827bffffffffffffffffffffffffffffffffffffffffffffffffffffffff1916148061086157507f5b5e139f000000000000000000000000000000000000000000000000000000007bffffffffffffffffffffffffffffffffffffffffffffffffffffffff1916827bffffffffffffffffffffffffffffffffffffffffffffffffffffffff1916145b80610871575061087082611600565b5b9050919050565b600b805461088590612e1e565b80601f01602080910402602001604051908101604052809291908181526020018280546108b190612e1e565b80156108fe5780601f106108d3576101008083540402835291602001916108fe565b820191906000526020600020905b8154815290600101906020018083116108e157829003601f168201915b505050505081565b60606000805461091590612e1e565b80601f016020809104026020016040519081016040528092919081815260200182805461094190612e1e565b801561098e5780601f106109635761010080835404028352916020019161098e565b820191906000526020600020905b81548152906001019060200180831161097157829003601f168201915b5050505050905090565b60006109a38261166a565b6004600083815260200190815260200160002060009054906101000a900473ffffffffffffffffffffffffffffffffffffffff169050919050565b60006109e982610c91565b90508073ffffffffffffffffffffffffffffffffffffffff168373ffffffffffffffffffffffffffffffffffffffff1603610a59576040517f08c379a0000000000000000000000000000000000000000000000000000000008152600401610a509061313d565b60405180910390fd5b8073ffffffffffffffffffffffffffffffffffffffff16610a786116b5565b73ffffffffffffffffffffffffffffffffffffffff161480610aa75750610aa681610aa16116b5565b611458565b5b610ae6576040517f08c379a0000000000000000000000000000000000000000000000000000000008152600401610add906131cf565b60405180910390fd5b610af083836116bd565b505050565b6000610b016007611776565b905090565b610b17610b116116b5565b82611784565b610b56576040517f08c379a0000000000000000000000000000000000000000000000000000000008152600401610b4d90613261565b60405180910390fd5b610b61838383611819565b505050565b601481565b610b73611582565b600047905060008111610bbb576040517f08c379a0000000000000000000000000000000000000000000000000000000008152600401610bb2906132cd565b60405180910390fd5b610bc3610e51565b73ffffffffffffffffffffffffffffffffffffffff166108fc829081150290604051600060405180830381858888f19350505050158015610c08573d6000803e3d6000fd5b5050565b610c27838383604051806020016040528060008152506112c8565b505050565b610c34611582565b80600960006101000a81548160ff02191690836002811115610c5957610c58612d52565b5b021790555050565b610c69611582565b8181600a9182610c7a929190612ffb565b505050565b610c87611582565b8060088190555050565b600080610c9d83611b12565b9050600073ffffffffffffffffffffffffffffffffffffffff168173ffffffffffffffffffffffffffffffffffffffff1603610d0e576040517f08c379a0000000000000000000000000000000000000000000000000000000008152600401610d0590613339565b60405180910390fd5b80915050919050565b60008073ffffffffffffffffffffffffffffffffffffffff168273ffffffffffffffffffffffffffffffffffffffff1603610d87576040517f08c379a0000000000000000000000000000000000000000000000000000000008152600401610d7e906133cb565b60405180910390fd5b600360008373ffffffffffffffffffffffffffffffffffffffff1673ffffffffffffffffffffffffffffffffffffffff168152602001908152602001600020549050919050565b610dd6611582565b610de06000611b4f565b565b610dea611582565b611d4c81610df86007611776565b610e02919061341a565b1115610e43576040517f08c379a0000000000000000000000000000000000000000000000000000000008152600401610e3a9061349a565b60405180910390fd5b610e4d8282611c15565b5050565b6000600660009054906101000a900473ffffffffffffffffffffffffffffffffffffffff16905090565b606481565b606060018054610e8f90612e1e565b80601f0160208091040260200160405190810160405280929190818152602001828054610ebb90612e1e565b8015610f085780601f10610edd57610100808354040283529160200191610f08565b820191906000526020600020905b815481529060010190602001808311610eeb57829003601f168201915b5050505050905090565b60006002811115610f2657610f25612d52565b5b600960009054906101000a900460ff166002811115610f4857610f47612d52565b5b03610f88576040517f08c379a0000000000000000000000000000000000000000000000000000000008152600401610f7f90613506565b60405180910390fd5b611d4c81610f966007611776565b610fa0919061341a565b1115610fe1576040517f08c379a0000000000000000000000000000000000000000000000000000000008152600401610fd8906135be565b60405180910390fd5b6064811115611025576040517f08c379a000000000000000000000000000000000000000000000000000000000815260040161101c90613650565b60405180910390fd5b601481600c60003373ffffffffffffffffffffffffffffffffffffffff1673ffffffffffffffffffffffffffffffffffffffff16815260200190815260200160002054611072919061341a565b11156110b3576040517f08c379a00000000000000000000000000000000000000000000000000000000081526004016110aa90613650565b60405180910390fd5b6110bc81611177565b3410156110fe576040517f08c379a00000000000000000000000000000000000000000000000000000000081526004016110f5906136e2565b60405180910390fd5b80600c60003373ffffffffffffffffffffffffffffffffffffffff1673ffffffffffffffffffffffffffffffffffffffff168152602001908152602001600020600082825461114d919061341a565b9250508190555061115e3382611c15565b50565b61117361116c6116b5565b8383611c5b565b5050565b600080600281111561118c5761118b612d52565b5b600960009054906101000a900460ff1660028111156111ae576111ad612d52565b5b036111ee576040517f08c379a00000000000000000000000000000000000000000000000000000000081526004016111e590613506565b60405180910390fd5b600073ffffffffffffffffffffffffffffffffffffffff163373ffffffffffffffffffffffffffffffffffffffff160361122757600080fd5b6000600c60003373ffffffffffffffffffffffffffffffffffffffff1673ffffffffffffffffffffffffffffffffffffffff16815260200190815260200160002054905080600011156112a75760008160006112839190613702565b9050808411156112a05780846112999190613702565b93506112a5565b600093505b505b6000600854905080846112ba9190613736565b92505050919050565b600081565b6112d96112d36116b5565b83611784565b611318576040517f08c379a000000000000000000000000000000000000000000000000000000000815260040161130f90613261565b60405180910390fd5b61132484848484611dc7565b50505050565b60085481565b606061133b82611e23565b61137a576040517f08c379a0000000000000000000000000000000000000000000000000000000008152600401611371906137ea565b60405180910390fd5b6000611384611e64565b9050600081511161141f57600b805461139c90612e1e565b80601f01602080910402602001604051908101604052809291908181526020018280546113c890612e1e565b80156114155780601f106113ea57610100808354040283529160200191611415565b820191906000526020600020905b8154815290600101906020018083116113f857829003601f168201915b505050505061144a565b8061142984611ef6565b60405160200161143a9291906138de565b6040516020818303038152906040525b915050919050565b611d4c81565b6000600560008473ffffffffffffffffffffffffffffffffffffffff1673ffffffffffffffffffffffffffffffffffffffff16815260200190815260200160002060008373ffffffffffffffffffffffffffffffffffffffff1673ffffffffffffffffffffffffffffffffffffffff16815260200190815260200160002060009054906101000a900460ff16905092915050565b6114f4611582565b600073ffffffffffffffffffffffffffffffffffffffff168173ffffffffffffffffffffffffffffffffffffffff1603611563576040517f08c379a000000000000000000000000000000000000000000000000000000000815260040161155a9061398a565b60405180910390fd5b61156c81611b4f565b50565b600960009054906101000a900460ff1681565b61158a6116b5565b73ffffffffffffffffffffffffffffffffffffffff166115a8610e51565b73ffffffffffffffffffffffffffffffffffffffff16146115fe576040517f08c379a00000000000000000000000000000000000000000000000000000000081526004016115f5906139f6565b60405180910390fd5b565b60007f01ffc9a7000000000000000000000000000000000000000000000000000000007bffffffffffffffffffffffffffffffffffffffffffffffffffffffff1916827bffffffffffffffffffffffffffffffffffffffffffffffffffffffff1916149050919050565b61167381611e23565b6116b2576040517f08c379a00000000000000000000000000000000000000000000000000000000081526004016116a990613339565b60405180910390fd5b50565b600033905090565b816004600083815260200190815260200160002060006101000a81548173ffffffffffffffffffffffffffffffffffffffff021916908373ffffffffffffffffffffffffffffffffffffffff160217905550808273ffffffffffffffffffffffffffffffffffffffff1661173083610c91565b73ffffffffffffffffffffffffffffffffffffffff167f8c5be1e5ebec7d5bd14f71427d1e84f3dd0314c0f7b2291e5b200ac8c7c3b92560405160405180910390a45050565b600081600001549050919050565b60008061179083610c91565b90508073ffffffffffffffffffffffffffffffffffffffff168473ffffffffffffffffffffffffffffffffffffffff1614806117d257506117d18185611458565b5b8061181057508373ffffffffffffffffffffffffffffffffffffffff166117f884610998565b73ffffffffffffffffffffffffffffffffffffffff16145b91505092915050565b8273ffffffffffffffffffffffffffffffffffffffff1661183982610c91565b73ffffffffffffffffffffffffffffffffffffffff161461188f576040517f08c379a000000000000000000000000000000000000000000000000000000000815260040161188690613a88565b60405180910390fd5b600073ffffffffffffffffffffffffffffffffffffffff168273ffffffffffffffffffffffffffffffffffffffff16036118fe576040517f08c379a00000000000000000000000000000000000000000000000000000000081526004016118f590613b1a565b60405180910390fd5b61190b8383836001611fc4565b8273ffffffffffffffffffffffffffffffffffffffff1661192b82610c91565b73ffffffffffffffffffffffffffffffffffffffff1614611981576040517f08c379a000000000000000000000000000000000000000000000000000000000815260040161197890613a88565b60405180910390fd5b6004600082815260200190815260200160002060006101000a81549073ffffffffffffffffffffffffffffffffffffffff02191690556001600360008573ffffffffffffffffffffffffffffffffffffffff1673ffffffffffffffffffffffffffffffffffffffff168152602001908152602001600020600082825403925050819055506001600360008473ffffffffffffffffffffffffffffffffffffffff1673ffffffffffffffffffffffffffffffffffffffff16815260200190815260200160002060008282540192505081905550816002600083815260200190815260200160002060006101000a81548173ffffffffffffffffffffffffffffffffffffffff021916908373ffffffffffffffffffffffffffffffffffffffff160217905550808273ffffffffffffffffffffffffffffffffffffffff168473ffffffffffffffffffffffffffffffffffffffff167fddf252ad1be2c89b69c2b068fc378daa952ba7f163c4a11628f55a4df523b3ef60405160405180910390a4611b0d83838360016120ea565b505050565b60006002600083815260200190815260200160002060009054906101000a900473ffffffffffffffffffffffffffffffffffffffff169050919050565b6000600660009054906101000a900473ffffffffffffffffffffffffffffffffffffffff16905081600660006101000a81548173ffffffffffffffffffffffffffffffffffffffff021916908373ffffffffffffffffffffffffffffffffffffffff1602179055508173ffffffffffffffffffffffffffffffffffffffff168173ffffffffffffffffffffffffffffffffffffffff167f8be0079c531659141344cd1fd0a4f28419497f9722a3daafe3b4186f6b6457e060405160405180910390a35050565b60005b81811015611c5657611c2a60076120f0565b6000611c366007611776565b9050611c428482612106565b508080611c4e90613b3a565b915050611c18565b505050565b8173ffffffffffffffffffffffffffffffffffffffff168373ffffffffffffffffffffffffffffffffffffffff1603611cc9576040517f08c379a0000000000000000000000000000000000000000000000000000000008152600401611cc090613bce565b60405180910390fd5b80600560008573ffffffffffffffffffffffffffffffffffffffff1673ffffffffffffffffffffffffffffffffffffffff16815260200190815260200160002060008473ffffffffffffffffffffffffffffffffffffffff1673ffffffffffffffffffffffffffffffffffffffff16815260200190815260200160002060006101000a81548160ff0219169083151502179055508173ffffffffffffffffffffffffffffffffffffffff168373ffffffffffffffffffffffffffffffffffffffff167f17307eab39ab6107e8899845ad3d59bd9653f200f220920489ca2b5937696c3183604051611dba91906127ff565b60405180910390a3505050565b611dd2848484611819565b611dde84848484612124565b611e1d576040517f08c379a0000000000000000000000000000000000000000000000000000000008152600401611e1490613c60565b60405180910390fd5b50505050565b60008073ffffffffffffffffffffffffffffffffffffffff16611e4583611b12565b73ffffffffffffffffffffffffffffffffffffffff1614159050919050565b6060600a8054611e7390612e1e565b80601f0160208091040260200160405190810160405280929190818152602001828054611e9f90612e1e565b8015611eec5780601f10611ec157610100808354040283529160200191611eec565b820191906000526020600020905b815481529060010190602001808311611ecf57829003601f168201915b5050505050905090565b606060006001611f05846122ab565b01905060008167ffffffffffffffff811115611f2457611f23612b64565b5b6040519080825280601f01601f191660200182016040528015611f565781602001600182028036833780820191505090505b509050600082602001820190505b600115611fb9578080600190039150507f3031323334353637383961626364656600000000000000000000000000000000600a86061a8153600a8581611fad57611fac613c80565b5b04945060008503611f64575b819350505050919050565b60018111156120e457600073ffffffffffffffffffffffffffffffffffffffff168473ffffffffffffffffffffffffffffffffffffffff16146120585780600360008673ffffffffffffffffffffffffffffffffffffffff1673ffffffffffffffffffffffffffffffffffffffff16815260200190815260200160002060008282546120509190613702565b925050819055505b600073ffffffffffffffffffffffffffffffffffffffff168373ffffffffffffffffffffffffffffffffffffffff16146120e35780600360008573ffffffffffffffffffffffffffffffffffffffff1673ffffffffffffffffffffffffffffffffffffffff16815260200190815260200160002060008282546120db919061341a565b925050819055505b5b50505050565b50505050565b6001816000016000828254019250508190555050565b6121208282604051806020016040528060008152506123fe565b5050565b60006121458473ffffffffffffffffffffffffffffffffffffffff16612459565b1561229e578373ffffffffffffffffffffffffffffffffffffffff1663150b7a0261216e6116b5565b8786866040518563ffffffff1660e01b81526004016121909493929190613d04565b6020604051808303816000875af19250505080156121cc57506040513d601f19601f820116820180604052508101906121c99190613d65565b60015b61224e573d80600081146121fc576040519150601f19603f3d011682016040523d82523d6000602084013e612201565b606091505b506000815103612246576040517f08c379a000000000000000000000000000000000000000000000000000000000815260040161223d90613c60565b60405180910390fd5b805181602001fd5b63150b7a0260e01b7bffffffffffffffffffffffffffffffffffffffffffffffffffffffff1916817bffffffffffffffffffffffffffffffffffffffffffffffffffffffff1916149150506122a3565b600190505b949350505050565b600080600090507a184f03e93ff9f4daa797ed6e38ed64bf6a1f0100000000000000008310612309577a184f03e93ff9f4daa797ed6e38ed64bf6a1f01000000000000000083816122ff576122fe613c80565b5b0492506040810190505b6d04ee2d6d415b85acef81000000008310612346576d04ee2d6d415b85acef8100000000838161233c5761233b613c80565b5b0492506020810190505b662386f26fc10000831061237557662386f26fc10000838161236b5761236a613c80565b5b0492506010810190505b6305f5e100831061239e576305f5e100838161239457612393613c80565b5b0492506008810190505b61271083106123c35761271083816123b9576123b8613c80565b5b0492506004810190505b606483106123e657606483816123dc576123db613c80565b5b0492506002810190505b600a83106123f5576001810190505b80915050919050565b612408838361247c565b6124156000848484612124565b612454576040517f08c379a000000000000000000000000000000000000000000000000000000000815260040161244b90613c60565b60405180910390fd5b505050565b6000808273ffffffffffffffffffffffffffffffffffffffff163b119050919050565b600073ffffffffffffffffffffffffffffffffffffffff168273ffffffffffffffffffffffffffffffffffffffff16036124eb576040517f08c379a00000000000000000000000000000000000000000000000000000000081526004016124e290613dde565b60405180910390fd5b6124f481611e23565b15612534576040517f08c379a000000000000000000000000000000000000000000000000000000000815260040161252b90613e4a565b60405180910390fd5b612542600083836001611fc4565b61254b81611e23565b1561258b576040517f08c379a000000000000000000000000000000000000000000000000000000000815260040161258290613e4a565b60405180910390fd5b6001600360008473ffffffffffffffffffffffffffffffffffffffff1673ffffffffffffffffffffffffffffffffffffffff16815260200190815260200160002060008282540192505081905550816002600083815260200190815260200160002060006101000a81548173ffffffffffffffffffffffffffffffffffffffff021916908373ffffffffffffffffffffffffffffffffffffffff160217905550808273ffffffffffffffffffffffffffffffffffffffff16600073ffffffffffffffffffffffffffffffffffffffff167fddf252ad1be2c89b69c2b068fc378daa952ba7f163c4a11628f55a4df523b3ef60405160405180910390a46126956000838360016120ea565b5050565b6000604051905090565b600080fd5b600080fd5b600080fd5b600080fd5b600080fd5b60008083601f8401126126d2576126d16126ad565b5b8235905067ffffffffffffffff8111156126ef576126ee6126b2565b5b60208301915083600182028301111561270b5761270a6126b7565b5b9250929050565b60008060208385031215612729576127286126a3565b5b600083013567ffffffffffffffff811115612747576127466126a8565b5b612753858286016126bc565b92509250509250929050565b60007fffffffff0000000000000000000000000000000000000000000000000000000082169050919050565b6127948161275f565b811461279f57600080fd5b50565b6000813590506127b18161278b565b92915050565b6000602082840312156127cd576127cc6126a3565b5b60006127db848285016127a2565b91505092915050565b60008115159050919050565b6127f9816127e4565b82525050565b600060208201905061281460008301846127f0565b92915050565b600081519050919050565b600082825260208201905092915050565b60005b83811015612854578082015181840152602081019050612839565b60008484015250505050565b6000601f19601f8301169050919050565b600061287c8261281a565b6128868185612825565b9350612896818560208601612836565b61289f81612860565b840191505092915050565b600060208201905081810360008301526128c48184612871565b905092915050565b6000819050919050565b6128df816128cc565b81146128ea57600080fd5b50565b6000813590506128fc816128d6565b92915050565b600060208284031215612918576129176126a3565b5b6000612926848285016128ed565b91505092915050565b600073ffffffffffffffffffffffffffffffffffffffff82169050919050565b600061295a8261292f565b9050919050565b61296a8161294f565b82525050565b60006020820190506129856000830184612961565b92915050565b6129948161294f565b811461299f57600080fd5b50565b6000813590506129b18161298b565b92915050565b600080604083850312156129ce576129cd6126a3565b5b60006129dc858286016129a2565b92505060206129ed858286016128ed565b9150509250929050565b612a00816128cc565b82525050565b6000602082019050612a1b60008301846129f7565b92915050565b600080600060608486031215612a3a57612a396126a3565b5b6000612a48868287016129a2565b9350506020612a59868287016129a2565b9250506040612a6a868287016128ed565b9150509250925092565b60038110612a8157600080fd5b50565b600081359050612a9381612a74565b92915050565b600060208284031215612aaf57612aae6126a3565b5b6000612abd84828501612a84565b91505092915050565b600060208284031215612adc57612adb6126a3565b5b6000612aea848285016129a2565b91505092915050565b612afc816127e4565b8114612b0757600080fd5b50565b600081359050612b1981612af3565b92915050565b60008060408385031215612b3657612b356126a3565b5b6000612b44858286016129a2565b9250506020612b5585828601612b0a565b9150509250929050565b600080fd5b7f4e487b7100000000000000000000000000000000000000000000000000000000600052604160045260246000fd5b612b9c82612860565b810181811067ffffffffffffffff82111715612bbb57612bba612b64565b5b80604052505050565b6000612bce612699565b9050612bda8282612b93565b919050565b600067ffffffffffffffff821115612bfa57612bf9612b64565b5b612c0382612860565b9050602081019050919050565b82818337600083830152505050565b6000612c32612c2d84612bdf565b612bc4565b905082815260208101848484011115612c4e57612c4d612b5f565b5b612c59848285612c10565b509392505050565b600082601f830112612c7657612c756126ad565b5b8135612c86848260208601612c1f565b91505092915050565b60008060008060808587031215612ca957612ca86126a3565b5b6000612cb7878288016129a2565b9450506020612cc8878288016129a2565b9350506040612cd9878288016128ed565b925050606085013567ffffffffffffffff811115612cfa57612cf96126a8565b5b612d0687828801612c61565b91505092959194509250565b60008060408385031215612d2957612d286126a3565b5b6000612d37858286016129a2565b9250506020612d48858286016129a2565b9150509250929050565b7f4e487b7100000000000000000000000000000000000000000000000000000000600052602160045260246000fd5b60038110612d9257612d91612d52565b5b50565b6000819050612da382612d81565b919050565b6000612db382612d95565b9050919050565b612dc381612da8565b82525050565b6000602082019050612dde6000830184612dba565b92915050565b600082905092915050565b7f4e487b7100000000000000000000000000000000000000000000000000000000600052602260045260246000fd5b60006002820490506001821680612e3657607f821691505b602082108103612e4957612e48612def565b5b50919050565b60008190508160005260206000209050919050565b60006020601f8301049050919050565b600082821b905092915050565b600060088302612eb17fffffffffffffffffffffffffffffffffffffffffffffffffffffffffffffffff82612e74565b612ebb8683612e74565b95508019841693508086168417925050509392505050565b6000819050919050565b6000612ef8612ef3612eee846128cc565b612ed3565b6128cc565b9050919050565b6000819050919050565b612f1283612edd565b612f26612f1e82612eff565b848454612e81565b825550505050565b600090565b612f3b612f2e565b612f46818484612f09565b505050565b5b81811015612f6a57612f5f600082612f33565b600181019050612f4c565b5050565b601f821115612faf57612f8081612e4f565b612f8984612e64565b81016020851015612f98578190505b612fac612fa485612e64565b830182612f4b565b50505b505050565b600082821c905092915050565b6000612fd260001984600802612fb4565b1980831691505092915050565b6000612feb8383612fc1565b9150826002028217905092915050565b6130058383612de4565b67ffffffffffffffff81111561301e5761301d612b64565b5b6130288254612e1e565b613033828285612f6e565b6000601f8311600181146130625760008415613050578287013590505b61305a8582612fdf565b8655506130c2565b601f19841661307086612e4f565b60005b8281101561309857848901358255600182019150602085019450602081019050613073565b868310156130b557848901356130b1601f891682612fc1565b8355505b6001600288020188555050505b50505050505050565b7f4552433732313a20617070726f76616c20746f2063757272656e74206f776e6560008201527f7200000000000000000000000000000000000000000000000000000000000000602082015250565b6000613127602183612825565b9150613132826130cb565b604082019050919050565b600060208201905081810360008301526131568161311a565b9050919050565b7f4552433732313a20617070726f76652063616c6c6572206973206e6f7420746f60008201527f6b656e206f776e6572206f7220617070726f76656420666f7220616c6c000000602082015250565b60006131b9603d83612825565b91506131c48261315d565b604082019050919050565b600060208201905081810360008301526131e8816131ac565b9050919050565b7f4552433732313a2063616c6c6572206973206e6f7420746f6b656e206f776e6560008201527f72206f7220617070726f76656400000000000000000000000000000000000000602082015250565b600061324b602d83612825565b9150613256826131ef565b604082019050919050565b6000602082019050818103600083015261327a8161323e565b9050919050565b7f4e6f2062616c616e636500000000000000000000000000000000000000000000600082015250565b60006132b7600a83612825565b91506132c282613281565b602082019050919050565b600060208201905081810360008301526132e6816132aa565b9050919050565b7f4552433732313a20696e76616c696420746f6b656e2049440000000000000000600082015250565b6000613323601883612825565b915061332e826132ed565b602082019050919050565b6000602082019050818103600083015261335281613316565b9050919050565b7f4552433732313a2061646472657373207a65726f206973206e6f74206120766160008201527f6c6964206f776e65720000000000000000000000000000000000000000000000602082015250565b60006133b5602983612825565b91506133c082613359565b604082019050919050565b600060208201905081810360008301526133e4816133a8565b9050919050565b7f4e487b7100000000000000000000000000000000000000000000000000000000600052601160045260246000fd5b6000613425826128cc565b9150613430836128cc565b9250828201905080821115613448576134476133eb565b5b92915050565b7f52657175657374206578636565647320636f6c6c656374696f6e2073697a6500600082015250565b6000613484601f83612825565b915061348f8261344e565b602082019050919050565b600060208201905081810360008301526134b381613477565b9050919050565b7f537175697272656c794d6f6e7a3a2053616c657320617265206f666600000000600082015250565b60006134f0601c83612825565b91506134fb826134ba565b602082019050919050565b6000602082019050818103600083015261351f816134e3565b9050919050565b7f537175697272656c794d6f6e7a3a204e756d626572206f66207265717565737460008201527f656420746f6b656e732077696c6c2065786365656420636f6c6c656374696f6e60208201527f2073697a65000000000000000000000000000000000000000000000000000000604082015250565b60006135a8604583612825565b91506135b382613526565b606082019050919050565b600060208201905081810360008301526135d78161359b565b9050919050565b7f537175697272656c794d6f6e7a3a204e756d626572206f66207265717565737460008201527f656420746f6b656e73206578636565647320616c6c6f77616e63652028323029602082015250565b600061363a604083612825565b9150613645826135de565b604082019050919050565b600060208201905081810360008301526136698161362d565b9050919050565b7f537175697272656c794d6f6e7a3a2045746865722076616c75652073656e742060008201527f6973206e6f742073756666696369656e74000000000000000000000000000000602082015250565b60006136cc603183612825565b91506136d782613670565b604082019050919050565b600060208201905081810360008301526136fb816136bf565b9050919050565b600061370d826128cc565b9150613718836128cc565b92508282039050818111156137305761372f6133eb565b5b92915050565b6000613741826128cc565b915061374c836128cc565b925082820261375a816128cc565b91508282048414831517613771576137706133eb565b5b5092915050565b7f4552433732314d657461646174613a2055524920717565727920666f72206e6f60008201527f6e6578697374656e7420746f6b656e0000000000000000000000000000000000602082015250565b60006137d4602f83612825565b91506137df82613778565b604082019050919050565b60006020820190508181036000830152613803816137c7565b9050919050565b600081905092915050565b60006138208261281a565b61382a818561380a565b935061383a818560208601612836565b80840191505092915050565b7f2f00000000000000000000000000000000000000000000000000000000000000600082015250565b600061387c60018361380a565b915061388782613846565b600182019050919050565b7f2e6a736f6e000000000000000000000000000000000000000000000000000000600082015250565b60006138c860058361380a565b91506138d382613892565b600582019050919050565b60006138ea8285613815565b91506138f58261386f565b91506139018284613815565b915061390c826138bb565b91508190509392505050565b7f4f776e61626c653a206e6577206f776e657220697320746865207a65726f206160008201527f6464726573730000000000000000000000000000000000000000000000000000602082015250565b6000613974602683612825565b915061397f82613918565b604082019050919050565b600060208201905081810360008301526139a381613967565b9050919050565b7f4f776e61626c653a2063616c6c6572206973206e6f7420746865206f776e6572600082015250565b60006139e0602083612825565b91506139eb826139aa565b602082019050919050565b60006020820190508181036000830152613a0f816139d3565b9050919050565b7f4552433732313a207472616e736665722066726f6d20696e636f72726563742060008201527f6f776e6572000000000000000000000000000000000000000000000000000000602082015250565b6000613a72602583612825565b9150613a7d82613a16565b604082019050919050565b60006020820190508181036000830152613aa181613a65565b9050919050565b7f4552433732313a207472616e7366657220746f20746865207a65726f2061646460008201527f7265737300000000000000000000000000000000000000000000000000000000602082015250565b6000613b04602483612825565b9150613b0f82613aa8565b604082019050919050565b60006020820190508181036000830152613b3381613af7565b9050919050565b6000613b45826128cc565b91507fffffffffffffffffffffffffffffffffffffffffffffffffffffffffffffffff8203613b7757613b766133eb565b5b600182019050919050565b7f4552433732313a20617070726f766520746f2063616c6c657200000000000000600082015250565b6000613bb8601983612825565b9150613bc382613b82565b602082019050919050565b60006020820190508181036000830152613be781613bab565b9050919050565b7f4552433732313a207472616e7366657220746f206e6f6e20455243373231526560008201527f63656976657220696d706c656d656e7465720000000000000000000000000000602082015250565b6000613c4a603283612825565b9150613c5582613bee565b604082019050919050565b60006020820190508181036000830152613c7981613c3d565b9050919050565b7f4e487b7100000000000000000000000000000000000000000000000000000000600052601260045260246000fd5b600081519050919050565b600082825260208201905092915050565b6000613cd682613caf565b613ce08185613cba565b9350613cf0818560208601612836565b613cf981612860565b840191505092915050565b6000608082019050613d196000830187612961565b613d266020830186612961565b613d3360408301856129f7565b8181036060830152613d458184613ccb565b905095945050505050565b600081519050613d5f8161278b565b92915050565b600060208284031215613d7b57613d7a6126a3565b5b6000613d8984828501613d50565b91505092915050565b7f4552433732313a206d696e7420746f20746865207a65726f2061646472657373600082015250565b6000613dc8602083612825565b9150613dd382613d92565b602082019050919050565b60006020820190508181036000830152613df781613dbb565b9050919050565b7f4552433732313a20746f6b656e20616c7265616479206d696e74656400000000600082015250565b6000613e34601c83612825565b9150613e3f82613dfe565b602082019050919050565b60006020820190508181036000830152613e6381613e27565b905091905056fea2646970667358221220dbbc59526857a60b486007c6f0af1567a4ce89ad22b963890fb49320c58d00a564736f6c63430008110033697066733a2f2f62616679726569647a686934617279716373663676337967346d686e6e3261753779777277376a7836666d6234633368746578366c623736377a6d2f6d657461646174612e6a736f6e",
  "linkReferences": {},
  "deployedLinkReferences": {}
}